{
  "_format": "hh-sol-artifact-1",
  "contractName": "LottoRon",
  "sourceName": "contracts/LottoRon.sol",
  "abi": [
    {
      "inputs": [
        {
          "internalType": "uint256",
          "name": "_ticketPrice",
          "type": "uint256"
        }
      ],
      "stateMutability": "nonpayable",
      "type": "constructor"
    },
    {
      "anonymous": false,
      "inputs": [
        {
          "indexed": false,
          "internalType": "address",
          "name": "sender",
          "type": "address"
        },
        {
          "indexed": false,
          "internalType": "uint256",
          "name": "amount",
          "type": "uint256"
        }
      ],
      "name": "DepositReceived",
      "type": "event"
    },
    {
      "anonymous": false,
      "inputs": [
        {
          "indexed": false,
          "internalType": "address",
          "name": "investor",
          "type": "address"
        },
        {
          "indexed": false,
          "internalType": "uint256",
          "name": "amount",
          "type": "uint256"
        }
      ],
      "name": "InvestorClaimed",
      "type": "event"
    },
    {
      "anonymous": false,
      "inputs": [
        {
          "indexed": false,
          "internalType": "address",
          "name": "investor",
          "type": "address"
        },
        {
          "indexed": false,
          "internalType": "uint256",
          "name": "amountAfterFee",
          "type": "uint256"
        },
        {
          "indexed": false,
          "internalType": "uint256",
          "name": "fee",
          "type": "uint256"
        }
      ],
      "name": "InvestorWithdraw",
      "type": "event"
    },
    {
      "anonymous": false,
      "inputs": [
        {
          "indexed": false,
          "internalType": "uint256",
          "name": "amount",
          "type": "uint256"
        },
        {
          "indexed": false,
          "internalType": "uint256",
          "name": "roundId",
          "type": "uint256"
        }
      ],
      "name": "InvestorsPaid",
      "type": "event"
    },
    {
      "anonymous": false,
      "inputs": [
        {
          "indexed": false,
          "internalType": "uint8[6]",
          "name": "winningNumbers",
          "type": "uint8[6]"
        },
        {
          "indexed": false,
          "internalType": "uint256",
          "name": "lotteryId",
          "type": "uint256"
        }
      ],
      "name": "LotteryCompleted",
      "type": "event"
    },
    {
      "anonymous": false,
      "inputs": [
        {
          "indexed": false,
          "internalType": "address",
          "name": "wallet",
          "type": "address"
        },
        {
          "indexed": false,
          "internalType": "uint8[6]",
          "name": "numbers",
          "type": "uint8[6]"
        },
        {
          "indexed": false,
          "internalType": "uint256",
          "name": "lotteryId",
          "type": "uint256"
        },
        {
          "indexed": false,
          "internalType": "bool",
          "name": "isWinner",
          "type": "bool"
        },
        {
          "indexed": false,
          "internalType": "uint256",
          "name": "validDate",
          "type": "uint256"
        },
        {
          "indexed": false,
          "internalType": "uint256",
          "name": "createdAt",
          "type": "uint256"
        }
      ],
      "name": "TicketCreated",
      "type": "event"
    },
    {
      "inputs": [],
      "name": "claimRewards",
      "outputs": [],
      "stateMutability": "nonpayable",
      "type": "function"
    },
    {
      "inputs": [
        {
          "internalType": "uint8[6]",
          "name": "numbers",
          "type": "uint8[6]"
        }
      ],
      "name": "createTicket",
      "outputs": [],
      "stateMutability": "payable",
      "type": "function"
    },
    {
      "inputs": [],
      "name": "currentLotteryId",
      "outputs": [
        {
          "internalType": "uint256",
          "name": "",
          "type": "uint256"
        }
      ],
      "stateMutability": "view",
      "type": "function"
    },
    {
      "inputs": [],
      "name": "deposit",
      "outputs": [],
      "stateMutability": "payable",
      "type": "function"
    },
    {
      "inputs": [],
      "name": "drawCooldownEnd",
      "outputs": [
        {
          "internalType": "uint256",
          "name": "",
          "type": "uint256"
        }
      ],
      "stateMutability": "view",
      "type": "function"
    },
    {
      "inputs": [],
      "name": "getAllInvestors",
      "outputs": [
        {
          "internalType": "address[]",
          "name": "",
          "type": "address[]"
        }
      ],
      "stateMutability": "view",
      "type": "function"
    },
    {
      "inputs": [],
      "name": "getContractBalance",
      "outputs": [
        {
          "internalType": "uint256",
          "name": "",
          "type": "uint256"
        }
      ],
      "stateMutability": "view",
      "type": "function"
    },
    {
      "inputs": [],
      "name": "getJackpotAmount",
      "outputs": [
        {
          "internalType": "uint256",
          "name": "",
          "type": "uint256"
        }
      ],
      "stateMutability": "view",
      "type": "function"
    },
    {
      "inputs": [],
      "name": "invest",
      "outputs": [],
      "stateMutability": "payable",
      "type": "function"
    },
    {
      "inputs": [
        {
          "internalType": "address",
          "name": "",
          "type": "address"
        }
      ],
      "name": "investors",
      "outputs": [
        {
          "internalType": "uint256",
          "name": "amountDeposited",
          "type": "uint256"
        },
        {
          "internalType": "uint256",
          "name": "rewardDebt",
          "type": "uint256"
        },
        {
          "internalType": "uint256",
          "name": "depositTime",
          "type": "uint256"
        },
        {
          "internalType": "uint256",
          "name": "rewardsEarned",
          "type": "uint256"
        }
      ],
      "stateMutability": "view",
      "type": "function"
    },
    {
      "inputs": [],
      "name": "lotteryIsCompleted",
      "outputs": [],
      "stateMutability": "nonpayable",
      "type": "function"
    },
    {
      "inputs": [],
      "name": "lotteryStartNextRound",
      "outputs": [],
      "stateMutability": "nonpayable",
      "type": "function"
    },
    {
      "inputs": [
        {
          "internalType": "uint256",
          "name": "",
          "type": "uint256"
        }
      ],
      "name": "lottos",
      "outputs": [
        {
          "internalType": "uint256",
          "name": "id",
          "type": "uint256"
        },
        {
          "internalType": "bool",
          "name": "completed",
          "type": "bool"
        },
        {
          "internalType": "uint256",
          "name": "drawTime",
          "type": "uint256"
        },
        {
          "internalType": "uint256",
          "name": "validUntil",
          "type": "uint256"
        },
        {
          "internalType": "uint256",
          "name": "totalCollected",
          "type": "uint256"
        },
        {
          "internalType": "bool",
          "name": "hasWinners",
          "type": "bool"
        }
      ],
      "stateMutability": "view",
      "type": "function"
    },
    {
      "inputs": [
        {
          "internalType": "uint8",
          "name": "points",
          "type": "uint8"
        },
        {
          "internalType": "uint256",
          "name": "amount",
          "type": "uint256"
        }
      ],
      "name": "setPrizeForLevel",
      "outputs": [],
      "stateMutability": "nonpayable",
      "type": "function"
    },
    {
      "inputs": [],
      "name": "withdrawInvestment",
      "outputs": [],
      "stateMutability": "nonpayable",
      "type": "function"
    },
    {
      "stateMutability": "payable",
      "type": "receive"
    }
  ],
  "bytecode": "0x6080604052670de0b6b3a764000060045534801561001c57600080fd5b506040516132b13803806132b1833981810160405281019061003e9190610206565b60008111610081576040517f08c379a0000000000000000000000000000000000000000000000000000000008152600401610078906102b6565b60405180910390fd5b80600481905550336000806101000a81548173ffffffffffffffffffffffffffffffffffffffff021916908373ffffffffffffffffffffffffffffffffffffffff160217905550600180819055506000600360006101000a81548160ff021916908315150217905550673782dace9d90000060066000600360ff1681526020019081526020016000208190555068015af1d78b58c4000060066000600460ff168152602001908152602001600020819055506802b5e3af16b188000060066000600560ff16815260200190815260200160002081905550680ad78ebc5ac620000060066000600660ff1681526020019081526020016000208190555060015460056000600154815260200190815260200160002060000181905550603c426101a99190610305565b6005600060015481526020019081526020016000206005018190555050610339565b600080fd5b6000819050919050565b6101e3816101d0565b81146101ee57600080fd5b50565b600081519050610200816101da565b92915050565b60006020828403121561021c5761021b6101cb565b5b600061022a848285016101f1565b91505092915050565b600082825260208201905092915050565b7f456c2070726563696f2064656c207469636b6574206465626520736572206d6160008201527f796f72206120302e000000000000000000000000000000000000000000000000602082015250565b60006102a0602883610233565b91506102ab82610244565b604082019050919050565b600060208201905081810360008301526102cf81610293565b9050919050565b7f4e487b7100000000000000000000000000000000000000000000000000000000600052601160045260246000fd5b6000610310826101d0565b915061031b836101d0565b9250828201905080821115610333576103326102d6565b5b92915050565b612f69806103486000396000f3fe6080604052600436106100ec5760003560e01c80636f9fb98a1161008a578063d0e30db011610059578063d0e30db0146102d5578063de6097b6146102df578063e8b5e51f1461030a578063ed8b6556146103145761012c565b80636f9fb98a14610251578063bf3e394e1461027c578063c9b56c0814610293578063d0a2f2c4146102aa5761012c565b8063372500ab116100c6578063372500ab146101a657806360b69e93146101bd5780636be4097c146101e65780636f7bc9be146102115761012c565b80630a94f20b146101315780631fb0f0501461014d57806334fa9b42146101645761012c565b3661012c577f9936746a4565f9766fa768f88f56a7487c78780ac179562773d1c75c5269537e3334604051610122929190611d8a565b60405180910390a1005b600080fd5b61014b60048036038101906101469190611ddf565b61033f565b005b34801561015957600080fd5b5061016261078f565b005b34801561017057600080fd5b5061018b60048036038101906101869190611e38565b6109ea565b60405161019d96959493929190611e80565b60405180910390f35b3480156101b257600080fd5b506101bb610a40565b005b3480156101c957600080fd5b506101e460048036038101906101df9190611f1a565b610bc3565b005b3480156101f257600080fd5b506101fb610cca565b6040516102089190611f5a565b60405180910390f35b34801561021d57600080fd5b5061023860048036038101906102339190611fa1565b610cd0565b6040516102489493929190611fce565b60405180910390f35b34801561025d57600080fd5b50610266610d00565b6040516102739190611f5a565b60405180910390f35b34801561028857600080fd5b50610291610d08565b005b34801561029f57600080fd5b506102a8610f45565b005b3480156102b657600080fd5b506102bf611055565b6040516102cc91906120d1565b60405180910390f35b6102dd6110e3565b005b3480156102eb57600080fd5b506102f461111e565b6040516103019190611f5a565b60405180910390f35b610312611124565b005b34801561032057600080fd5b506103296112d0565b6040516103369190611f5a565b60405180910390f35b6004543414610383576040517f08c379a000000000000000000000000000000000000000000000000000000000815260040161037a90612150565b60405180910390fd5b61038c816112da565b156103cc576040517f08c379a00000000000000000000000000000000000000000000000000000000081526004016103c3906121bc565b60405180910390fd5b600560006001548152602001908152602001600020600501544210610426576040517f08c379a000000000000000000000000000000000000000000000000000000000815260040161041d90612228565b60405180910390fd5b600254421161046a576040517f08c379a000000000000000000000000000000000000000000000000000000000815260040161046190612294565b60405180910390fd5b600034905060006064601e8361048091906122e3565b61048a9190612354565b905060006064600a8461049d91906122e3565b6104a79190612354565b905080600c60008282546104bb9190612385565b9250508190555060008060009054906101000a900473ffffffffffffffffffffffffffffffffffffffff1673ffffffffffffffffffffffffffffffffffffffff1683604051610509906123ea565b60006040518083038185875af1925050503d8060008114610546576040519150601f19603f3d011682016040523d82523d6000602084013e61054b565b606091505b505090508061058f576040517f08c379a00000000000000000000000000000000000000000000000000000000081526004016105869061244b565b60405180910390fd5b60006040518060a001604052803373ffffffffffffffffffffffffffffffffffffffff168152602001876006806020026040519081016040528092919082600660200280828437600081840152601f19601f8201169050808301925050505050508152602001600015158152602001428152602001600060ff16815250905060056000600154815260200190815260200160002060020181908060018154018082558091505060019003906000526020600020906005020160009091909190915060008201518160000160006101000a81548173ffffffffffffffffffffffffffffffffffffffff021916908373ffffffffffffffffffffffffffffffffffffffff1602179055506020820151816001019060066106ae929190611c34565b5060408201518160020160006101000a81548160ff0219169083151502179055506060820151816003015560808201518160040160006101000a81548160ff021916908360ff16021790555050508460056000600154815260200190815260200160002060060160008282546107249190612385565b925050819055507fc5da36347c6564f865f8d8185482ad43bba5fafed4c4a3bb9a90a1ed272dbc1233876001546000600560006001548152602001908152602001600020600501544260405161077f96959493929190612535565b60405180910390a1505050505050565b60008054906101000a900473ffffffffffffffffffffffffffffffffffffffff1673ffffffffffffffffffffffffffffffffffffffff163373ffffffffffffffffffffffffffffffffffffffff161461081d576040517f08c379a0000000000000000000000000000000000000000000000000000000008152600401610814906125e6565b60405180910390fd5b600560006001548152602001908152602001600020600501544211610877576040517f08c379a000000000000000000000000000000000000000000000000000000000815260040161086e90612652565b60405180910390fd5b600360009054906101000a900460ff16156108c7576040517f08c379a00000000000000000000000000000000000000000000000000000000081526004016108be906126be565b60405180910390fd5b60006108d161139a565b9050806005600060015481526020019081526020016000206001019060066108fa929190611c34565b50600160056000600154815260200190815260200160002060030160006101000a81548160ff021916908315150217905550426005600060015481526020019081526020016000206004018190555060006109548261148b565b90508061096757610966600154611656565b5b6109726001546117da565b61097d600154611a22565b6001600360006101000a81548160ff021916908315150217905550600a426109a59190612385565b6002819055507f0d7f2ed0c180ddc67f69b23feaeeadedacc89fcc77abc26ab4e66e20b46df145826001546040516109de929190612757565b60405180910390a15050565b60056020528060005260406000206000915090508060000154908060030160009054906101000a900460ff16908060040154908060050154908060060154908060070160009054906101000a900460ff16905086565b6000600760003373ffffffffffffffffffffffffffffffffffffffff1673ffffffffffffffffffffffffffffffffffffffff168152602001908152602001600020905060008160030154905060008111610acf576040517f08c379a0000000000000000000000000000000000000000000000000000000008152600401610ac6906127cc565b60405180910390fd5b6000826003018190555060003373ffffffffffffffffffffffffffffffffffffffff1682604051610aff906123ea565b60006040518083038185875af1925050503d8060008114610b3c576040519150601f19603f3d011682016040523d82523d6000602084013e610b41565b606091505b5050905080610b85576040517f08c379a0000000000000000000000000000000000000000000000000000000008152600401610b7c90612838565b60405180910390fd5b7f999b30f9cebf480f8d5729a4de47050ab1c0ad132c0114afe35dbe87c9ef86cf3383604051610bb6929190611d8a565b60405180910390a1505050565b60008054906101000a900473ffffffffffffffffffffffffffffffffffffffff1673ffffffffffffffffffffffffffffffffffffffff163373ffffffffffffffffffffffffffffffffffffffff1614610c51576040517f08c379a0000000000000000000000000000000000000000000000000000000008152600401610c48906128a4565b60405180910390fd5b60038260ff1610158015610c69575060068260ff1611155b610ca8576040517f08c379a0000000000000000000000000000000000000000000000000000000008152600401610c9f90612910565b60405180910390fd5b80600660008460ff1660ff168152602001908152602001600020819055505050565b60015481565b60076020528060005260406000206000915090508060000154908060010154908060020154908060030154905084565b600047905090565b6000600760003373ffffffffffffffffffffffffffffffffffffffff1673ffffffffffffffffffffffffffffffffffffffff16815260200190815260200160002090506000816000015411610d92576040517f08c379a0000000000000000000000000000000000000000000000000000000008152600401610d899061297c565b60405180910390fd5b603c8160020154610da39190612385565b421015610de5576040517f08c379a0000000000000000000000000000000000000000000000000000000008152600401610ddc906129e8565b60405180910390fd5b60008160000154905060006064600a83610dff91906122e3565b610e099190612354565b905060008183610e199190612a08565b90506000846000018190555081600b6000828254610e379190612385565b925050819055508260096000828254610e509190612a08565b9250508190555060003373ffffffffffffffffffffffffffffffffffffffff1682604051610e7d906123ea565b60006040518083038185875af1925050503d8060008114610eba576040519150601f19603f3d011682016040523d82523d6000602084013e610ebf565b606091505b5050905080610f03576040517f08c379a0000000000000000000000000000000000000000000000000000000008152600401610efa90612a88565b60405180910390fd5b7f678bcb8d83ce37339a470462d6e0408ef3a12970b40d61bcee07ef84acaecdbf338385604051610f3693929190612aa8565b60405180910390a15050505050565b600360009054906101000a900460ff16610f94576040517f08c379a0000000000000000000000000000000000000000000000000000000008152600401610f8b90612b2b565b60405180910390fd5b6002544211610fd8576040517f08c379a0000000000000000000000000000000000000000000000000000000008152600401610fcf90612b97565b60405180910390fd5b60016000815480929190610feb90612bb7565b91905055506000600360006101000a81548160ff02191690831515021790555060015460056000600154815260200190815260200160002060000181905550603c426110379190612385565b60056000600154815260200190815260200160002060050181905550565b606060088054806020026020016040519081016040528092919081815260200182805480156110d957602002820191906000526020600020905b8160009054906101000a900473ffffffffffffffffffffffffffffffffffffffff1673ffffffffffffffffffffffffffffffffffffffff168152602001906001019080831161108f575b5050505050905090565b7f9936746a4565f9766fa768f88f56a7487c78780ac179562773d1c75c5269537e3334604051611114929190611d8a565b60405180910390a1565b60025481565b60003411611167576040517f08c379a000000000000000000000000000000000000000000000000000000000815260040161115e90612c4b565b60405180910390fd5b6000600760003373ffffffffffffffffffffffffffffffffffffffff1673ffffffffffffffffffffffffffffffffffffffff1681526020019081526020016000206000015403611215576008339080600181540180825580915050600190039060005260206000200160009091909190916101000a81548173ffffffffffffffffffffffffffffffffffffffff021916908373ffffffffffffffffffffffffffffffffffffffff1602179055505b34600760003373ffffffffffffffffffffffffffffffffffffffff1673ffffffffffffffffffffffffffffffffffffffff16815260200190815260200160002060000160008282546112679190612385565b9250508190555042600760003373ffffffffffffffffffffffffffffffffffffffff1673ffffffffffffffffffffffffffffffffffffffff1681526020019081526020016000206002018190555034600960008282546112c79190612385565b92505081905550565b6000600c54905090565b600080600090505b60068160ff16101561138f5760006001826112fd9190612c6b565b90505b60068160ff16101561138157838160ff166006811061132257611321612ca0565b5b6020020160208101906113359190612ccf565b60ff16848360ff166006811061134e5761134d612ca0565b5b6020020160208101906113619190612ccf565b60ff160361137457600192505050611395565b8080600101915050611300565b5080806001019150506112e2565b50600090505b919050565b6113a2611cce565b6113aa611cf0565b6113b2611cce565b60005b60068160ff16101561148257600060284233846040516020016113da93929190612d9b565b6040516020818303038152906040528051906020012060001c6113fd9190612dd8565b9050838160ff166028811061141557611414612ca0565b5b602002015161147c576001848260ff166028811061143657611435612ca0565b5b60200201901515908115158152505080838360ff166006811061145c5761145b612ca0565b5b602002019060ff16908160ff1681525050818061147890612e09565b9250505b506113b5565b81935050505090565b60008060056000600154815260200190815260200160002090506000805b826002018054905081101561162f5760008360020182815481106114d0576114cf612ca0565b5b906000526020600020906005020190506000805b60068160ff1610156115825760005b60068160ff16101561157457888160ff166006811061151557611514612ca0565b5b602002015160ff16846001018360ff166006811061153657611535612ca0565b5b602091828204019190069054906101000a900460ff1660ff160361156757828061155f90612e09565b935050611574565b80806001019150506114f3565b5080806001019150506114e4565b50600060038260ff160361159957600190506115d4565b60048260ff16036115ad57600290506115d3565b60058260ff16036115c157600390506115d2565b60068260ff16036115d157600490505b5b5b5b808360040160006101000a81548160ff021916908360ff16021790555060008160ff16111561161f5760018360020160006101000a81548160ff021916908315150217905550600194505b50505080806001019150506114a9565b50808260070160006101000a81548160ff0219169083151502179055508092505050919050565b60006005600083815260200190815260200160002090506000600954148061168c57508060070160009054906101000a900460ff165b1561169757506117d7565b60006064600a83600601546116ac91906122e3565b6116b69190612354565b905060005b60088054905081101561179a576000600882815481106116de576116dd612ca0565b5b9060005260206000200160009054906101000a900473ffffffffffffffffffffffffffffffffffffffff1690506000600760008373ffffffffffffffffffffffffffffffffffffffff1673ffffffffffffffffffffffffffffffffffffffff1681526020019081526020016000209050600060095482600001548661176391906122e3565b61176d9190612354565b9050808260030160008282546117839190612385565b9250508190555050505080806001019150506116bb565b507f08f2cec9b160029bc78ec5fd49a3ecace1d597a764de3984746ced4cd11306c281846040516117cc929190612e32565b60405180910390a150505b50565b60006005600083815260200190815260200160002090506000600390505b60068160ff1611611a1d576000805b8360020180549050811015611873578260ff168460020182815481106118305761182f612ca0565b5b906000526020600020906005020160040160009054906101000a900460ff1660ff160361186657818061186290612bb7565b9250505b8080600101915050611807565b50600081036118825750611a0a565b6000600660008460ff1660ff168152602001908152602001600020549050600082826118ae9190612354565b905060005b8560020180549050811015611a05578460ff168660020182815481106118dc576118db612ca0565b5b906000526020600020906005020160040160009054906101000a900460ff1660ff16036119f857600086600201828154811061191b5761191a612ca0565b5b906000526020600020906005020160000160009054906101000a900473ffffffffffffffffffffffffffffffffffffffff1673ffffffffffffffffffffffffffffffffffffffff1683604051611970906123ea565b60006040518083038185875af1925050503d80600081146119ad576040519150601f19603f3d011682016040523d82523d6000602084013e6119b2565b606091505b50509050806119f6576040517f08c379a00000000000000000000000000000000000000000000000000000000081526004016119ed90612ea7565b60405180910390fd5b505b80806001019150506118b3565b505050505b8080611a1590612e09565b9150506117f8565b505050565b60006005600083815260200190815260200160002090506000805b8260020180549050811015611aa7576004836002018281548110611a6457611a63612ca0565b5b906000526020600020906005020160040160009054906101000a900460ff1660ff1603611a9a578180611a9690612bb7565b9250505b8080600101915050611a3d565b50600081118015611aba57506000600c54115b15611c2f57600081600c54611acf9190612354565b905060005b8360020180549050811015611c24576004846002018281548110611afb57611afa612ca0565b5b906000526020600020906005020160040160009054906101000a900460ff1660ff1603611c17576000846002018281548110611b3a57611b39612ca0565b5b906000526020600020906005020160000160009054906101000a900473ffffffffffffffffffffffffffffffffffffffff1673ffffffffffffffffffffffffffffffffffffffff1683604051611b8f906123ea565b60006040518083038185875af1925050503d8060008114611bcc576040519150601f19603f3d011682016040523d82523d6000602084013e611bd1565b606091505b5050905080611c15576040517f08c379a0000000000000000000000000000000000000000000000000000000008152600401611c0c90612f13565b60405180910390fd5b505b8080600101915050611ad4565b506000600c81905550505b505050565b826006601f01602090048101928215611cbd5791602002820160005b83821115611c8e57835183826101000a81548160ff021916908360ff1602179055509260200192600101602081600001049283019260010302611c50565b8015611cbb5782816101000a81549060ff0219169055600101602081600001049283019260010302611c8e565b505b509050611cca9190611d13565b5090565b6040518060c00160405280600690602082028036833780820191505090505090565b604051806105000160405280602890602082028036833780820191505090505090565b5b80821115611d2c576000816000905550600101611d14565b5090565b600073ffffffffffffffffffffffffffffffffffffffff82169050919050565b6000611d5b82611d30565b9050919050565b611d6b81611d50565b82525050565b6000819050919050565b611d8481611d71565b82525050565b6000604082019050611d9f6000830185611d62565b611dac6020830184611d7b565b9392505050565b600080fd5b600080fd5b600081905082602060060282011115611dd957611dd8611db8565b5b92915050565b600060c08284031215611df557611df4611db3565b5b6000611e0384828501611dbd565b91505092915050565b611e1581611d71565b8114611e2057600080fd5b50565b600081359050611e3281611e0c565b92915050565b600060208284031215611e4e57611e4d611db3565b5b6000611e5c84828501611e23565b91505092915050565b60008115159050919050565b611e7a81611e65565b82525050565b600060c082019050611e956000830189611d7b565b611ea26020830188611e71565b611eaf6040830187611d7b565b611ebc6060830186611d7b565b611ec96080830185611d7b565b611ed660a0830184611e71565b979650505050505050565b600060ff82169050919050565b611ef781611ee1565b8114611f0257600080fd5b50565b600081359050611f1481611eee565b92915050565b60008060408385031215611f3157611f30611db3565b5b6000611f3f85828601611f05565b9250506020611f5085828601611e23565b9150509250929050565b6000602082019050611f6f6000830184611d7b565b92915050565b611f7e81611d50565b8114611f8957600080fd5b50565b600081359050611f9b81611f75565b92915050565b600060208284031215611fb757611fb6611db3565b5b6000611fc584828501611f8c565b91505092915050565b6000608082019050611fe36000830187611d7b565b611ff06020830186611d7b565b611ffd6040830185611d7b565b61200a6060830184611d7b565b95945050505050565b600081519050919050565b600082825260208201905092915050565b6000819050602082019050919050565b61204881611d50565b82525050565b600061205a838361203f565b60208301905092915050565b6000602082019050919050565b600061207e82612013565b612088818561201e565b93506120938361202f565b8060005b838110156120c45781516120ab888261204e565b97506120b683612066565b925050600181019050612097565b5085935050505092915050565b600060208201905081810360008301526120eb8184612073565b905092915050565b600082825260208201905092915050565b7f4465626573207061676172206578616374616d656e7465203120524f4e2e0000600082015250565b600061213a601e836120f3565b915061214582612104565b602082019050919050565b600060208201905081810360008301526121698161212d565b9050919050565b7f4c6f73206e756d65726f73206e6f20646562656e207265706574697273652e00600082015250565b60006121a6601f836120f3565b91506121b182612170565b602082019050919050565b600060208201905081810360008301526121d581612199565b9050919050565b7f4c6120726f6e6461206573746120636572726164612e00000000000000000000600082015250565b60006122126016836120f3565b915061221d826121dc565b602082019050919050565b6000602082019050818103600083015261224181612205565b9050919050565b7f436f6f6c646f776e2061637469766f2e00000000000000000000000000000000600082015250565b600061227e6010836120f3565b915061228982612248565b602082019050919050565b600060208201905081810360008301526122ad81612271565b9050919050565b7f4e487b7100000000000000000000000000000000000000000000000000000000600052601160045260246000fd5b60006122ee82611d71565b91506122f983611d71565b925082820261230781611d71565b9150828204841483151761231e5761231d6122b4565b5b5092915050565b7f4e487b7100000000000000000000000000000000000000000000000000000000600052601260045260246000fd5b600061235f82611d71565b915061236a83611d71565b92508261237a57612379612325565b5b828204905092915050565b600061239082611d71565b915061239b83611d71565b92508282019050808211156123b3576123b26122b4565b5b92915050565b600081905092915050565b50565b60006123d46000836123b9565b91506123df826123c4565b600082019050919050565b60006123f5826123c7565b9150819050919050565b7f5061676f20616c206f776e65722066616c6c69646f0000000000000000000000600082015250565b60006124356015836120f3565b9150612440826123ff565b602082019050919050565b6000602082019050818103600083015261246481612428565b9050919050565b600060069050919050565b600081905092915050565b6000819050919050565b61249481611ee1565b82525050565b60006124a6838361248b565b60208301905092915050565b60006124c16020840184611f05565b905092915050565b6000602082019050919050565b6124df8161246b565b6124e98184612476565b92506124f482612481565b8060005b8381101561252d5761250a82846124b2565b612514878261249a565b965061251f836124c9565b9250506001810190506124f8565b505050505050565b60006101608201905061254b6000830189611d62565b61255860208301886124d6565b61256560e0830187611d7b565b612573610100830186611e71565b612581610120830185611d7b565b61258f610140830184611d7b565b979650505050505050565b7f536f6c6f20656c206f776e6572207075656465206365727261722e0000000000600082015250565b60006125d0601b836120f3565b91506125db8261259a565b602082019050919050565b600060208201905081810360008301526125ff816125c3565b9050919050565b7f526f6e64612061756e206163746976612e000000000000000000000000000000600082015250565b600061263c6011836120f3565b915061264782612606565b602082019050919050565b6000602082019050818103600083015261266b8161262f565b9050919050565b7f596120736520636f6d706c65746f20656c20736f7274656f2e00000000000000600082015250565b60006126a86019836120f3565b91506126b382612672565b602082019050919050565b600060208201905081810360008301526126d78161269b565b9050919050565b600060069050919050565b6000819050919050565b6000602082019050919050565b612709816126de565b6127138184612476565b925061271e826126e9565b8060005b8381101561274f578151612736878261249a565b9650612741836126f3565b925050600181019050612722565b505050505050565b600060e08201905061276c6000830185612700565b61277960c0830184611d7b565b9392505050565b7f53696e207265636f6d70656e7361730000000000000000000000000000000000600082015250565b60006127b6600f836120f3565b91506127c182612780565b602082019050919050565b600060208201905081810360008301526127e5816127a9565b9050919050565b7f4572726f7220616c207061676172000000000000000000000000000000000000600082015250565b6000612822600e836120f3565b915061282d826127ec565b602082019050919050565b6000602082019050818103600083015261285181612815565b9050919050565b7f536f6c6f20656c206f776e657200000000000000000000000000000000000000600082015250565b600061288e600d836120f3565b915061289982612858565b602082019050919050565b600060208201905081810360008301526128bd81612881565b9050919050565b7f4e6976656c206e6f2076616c69646f0000000000000000000000000000000000600082015250565b60006128fa600f836120f3565b9150612905826128c4565b602082019050919050565b60006020820190508181036000830152612929816128ed565b9050919050565b7f4e61646120696e7665727469646f000000000000000000000000000000000000600082015250565b6000612966600e836120f3565b915061297182612930565b602082019050919050565b6000602082019050818103600083015261299581612959565b9050919050565b7f426c6f71756561646f203132206d657365730000000000000000000000000000600082015250565b60006129d26012836120f3565b91506129dd8261299c565b602082019050919050565b60006020820190508181036000830152612a01816129c5565b9050919050565b6000612a1382611d71565b9150612a1e83611d71565b9250828203905081811115612a3657612a356122b4565b5b92915050565b7f52657469726f2066616c6c69646f000000000000000000000000000000000000600082015250565b6000612a72600e836120f3565b9150612a7d82612a3c565b602082019050919050565b60006020820190508181036000830152612aa181612a65565b9050919050565b6000606082019050612abd6000830186611d62565b612aca6020830185611d7b565b612ad76040830184611d7b565b949350505050565b7f436f6d706c657461206c6120726f6e64612061637475616c2e00000000000000600082015250565b6000612b156019836120f3565b9150612b2082612adf565b602082019050919050565b60006020820190508181036000830152612b4481612b08565b9050919050565b7f45737065726120636f6f6c646f776e2e00000000000000000000000000000000600082015250565b6000612b816010836120f3565b9150612b8c82612b4b565b602082019050919050565b60006020820190508181036000830152612bb081612b74565b9050919050565b6000612bc282611d71565b91507fffffffffffffffffffffffffffffffffffffffffffffffffffffffffffffffff8203612bf457612bf36122b4565b5b600182019050919050565b7f446562657320656e7669617220524f4e00000000000000000000000000000000600082015250565b6000612c356010836120f3565b9150612c4082612bff565b602082019050919050565b60006020820190508181036000830152612c6481612c28565b9050919050565b6000612c7682611ee1565b9150612c8183611ee1565b9250828201905060ff811115612c9a57612c996122b4565b5b92915050565b7f4e487b7100000000000000000000000000000000000000000000000000000000600052603260045260246000fd5b600060208284031215612ce557612ce4611db3565b5b6000612cf384828501611f05565b91505092915050565b6000819050919050565b612d17612d1282611d71565b612cfc565b82525050565b60008160601b9050919050565b6000612d3582612d1d565b9050919050565b6000612d4782612d2a565b9050919050565b612d5f612d5a82611d50565b612d3c565b82525050565b60008160f81b9050919050565b6000612d7d82612d65565b9050919050565b612d95612d9082611ee1565b612d72565b82525050565b6000612da78286612d06565b602082019150612db78285612d4e565b601482019150612dc78284612d84565b600182019150819050949350505050565b6000612de382611d71565b9150612dee83611d71565b925082612dfe57612dfd612325565b5b828206905092915050565b6000612e1482611ee1565b915060ff8203612e2757612e266122b4565b5b600182019050919050565b6000604082019050612e476000830185611d7b565b612e546020830184611d7b565b9392505050565b7f5472616e73666572656e6369612066616c6c6964610000000000000000000000600082015250565b6000612e916015836120f3565b9150612e9c82612e5b565b602082019050919050565b60006020820190508181036000830152612ec081612e84565b9050919050565b7f4a61636b706f74207061676f2066616c6c69646f000000000000000000000000600082015250565b6000612efd6014836120f3565b9150612f0882612ec7565b602082019050919050565b60006020820190508181036000830152612f2c81612ef0565b905091905056fea26469706673582212208c6c68ebc279d6f34d8fbd59cc648473260bf40116d4172dbe2470d9afd7471564736f6c634300081c0033",
  "linkReferences": {},
  "deployedLinkReferences": {}
}