{
    "contractName": "LottoRon",
    "abi": [
        {
            "inputs": [
                {
                    "internalType": "uint256",
                    "name": "_ticketPrice",
                    "type": "uint256"
                }
            ],
            "stateMutability": "nonpayable",
            "type": "constructor"
        },
        {
            "anonymous": false,
            "inputs": [
                {
                    "indexed": false,
                    "internalType": "address",
                    "name": "sender",
                    "type": "address"
                },
                {
                    "indexed": false,
                    "internalType": "uint256",
                    "name": "amount",
                    "type": "uint256"
                }
            ],
            "name": "DepositReceived",
            "type": "event"
        },
        {
            "anonymous": false,
            "inputs": [
                {
                    "indexed": false,
                    "internalType": "address",
                    "name": "investor",
                    "type": "address"
                },
                {
                    "indexed": false,
                    "internalType": "uint256",
                    "name": "amount",
                    "type": "uint256"
                }
            ],
            "name": "InvestorClaimed",
            "type": "event"
        },
        {
            "anonymous": false,
            "inputs": [
                {
                    "indexed": false,
                    "internalType": "address",
                    "name": "investor",
                    "type": "address"
                },
                {
                    "indexed": false,
                    "internalType": "uint256",
                    "name": "amountAfterFee",
                    "type": "uint256"
                },
                {
                    "indexed": false,
                    "internalType": "uint256",
                    "name": "fee",
                    "type": "uint256"
                }
            ],
            "name": "InvestorWithdraw",
            "type": "event"
        },
        {
            "anonymous": false,
            "inputs": [
                {
                    "indexed": false,
                    "internalType": "uint256",
                    "name": "amount",
                    "type": "uint256"
                },
                {
                    "indexed": false,
                    "internalType": "uint256",
                    "name": "roundId",
                    "type": "uint256"
                }
            ],
            "name": "InvestorsPaid",
            "type": "event"
        },
        {
            "anonymous": false,
            "inputs": [
                {
                    "indexed": false,
                    "internalType": "uint8[6]",
                    "name": "winningNumbers",
                    "type": "uint8[6]"
                },
                {
                    "indexed": false,
                    "internalType": "uint256",
                    "name": "lotteryId",
                    "type": "uint256"
                }
            ],
            "name": "LotteryCompleted",
            "type": "event"
        },
        {
            "anonymous": false,
            "inputs": [
                {
                    "indexed": false,
                    "internalType": "address",
                    "name": "wallet",
                    "type": "address"
                },
                {
                    "indexed": false,
                    "internalType": "uint8[6]",
                    "name": "numbers",
                    "type": "uint8[6]"
                },
                {
                    "indexed": false,
                    "internalType": "uint256",
                    "name": "lotteryId",
                    "type": "uint256"
                },
                {
                    "indexed": false,
                    "internalType": "bool",
                    "name": "isWinner",
                    "type": "bool"
                },
                {
                    "indexed": false,
                    "internalType": "uint256",
                    "name": "validDate",
                    "type": "uint256"
                },
                {
                    "indexed": false,
                    "internalType": "uint256",
                    "name": "createdAt",
                    "type": "uint256"
                }
            ],
            "name": "TicketCreated",
            "type": "event"
        },
        {
            "inputs": [],
            "name": "claimRewards",
            "outputs": [],
            "stateMutability": "nonpayable",
            "type": "function"
        },
        {
            "inputs": [
                {
                    "internalType": "uint8[6]",
                    "name": "numbers",
                    "type": "uint8[6]"
                }
            ],
            "name": "createTicket",
            "outputs": [],
            "stateMutability": "payable",
            "type": "function"
        },
        {
            "inputs": [],
            "name": "deposit",
            "outputs": [],
            "stateMutability": "payable",
            "type": "function"
        },
        {
            "inputs": [],
            "name": "getAllInvestors",
            "outputs": [
                {
                    "internalType": "address[]",
                    "name": "",
                    "type": "address[]"
                }
            ],
            "stateMutability": "view",
            "type": "function"
        },
        {
            "inputs": [],
            "name": "getContractBalance",
            "outputs": [
                {
                    "internalType": "uint256",
                    "name": "",
                    "type": "uint256"
                }
            ],
            "stateMutability": "view",
            "type": "function"
        },
        {
            "inputs": [],
            "name": "getJackpotAmount",
            "outputs": [
                {
                    "internalType": "uint256",
                    "name": "",
                    "type": "uint256"
                }
            ],
            "stateMutability": "view",
            "type": "function"
        },
        {
            "inputs": [],
            "name": "invest",
            "outputs": [],
            "stateMutability": "payable",
            "type": "function"
        },
        {
            "inputs": [],
            "name": "lotteryIsCompleted",
            "outputs": [],
            "stateMutability": "nonpayable",
            "type": "function"
        },
        {
            "inputs": [],
            "name": "lotteryStartNextRound",
            "outputs": [],
            "stateMutability": "nonpayable",
            "type": "function"
        },
        {
            "inputs": [
                {
                    "internalType": "uint8",
                    "name": "points",
                    "type": "uint8"
                },
                {
                    "internalType": "uint256",
                    "name": "amount",
                    "type": "uint256"
                }
            ],
            "name": "setPrizeForLevel",
            "outputs": [],
            "stateMutability": "nonpayable",
            "type": "function"
        },
        {
            "inputs": [],
            "name": "withdrawInvestment",
            "outputs": [],
            "stateMutability": "nonpayable",
            "type": "function"
        },
        {
            "stateMutability": "payable",
            "type": "receive"
        }
    ],
    "bytecode": "6080346101db57601f61169238819003918201601f19168301916001600160401b038311848410176101df578084926020946040528339810103126101db57518015610185576004555f80546001600160a01b0319163317815560018080556003805460ff19169055673782dace9d9000007f75f96ab15d697e93042dc45b5c896c4b27e89bb6eaf39475c5c371cb2513f7d25568015af1d78b58c400007fc5069e24aaadb2addc3e52e868fcf3f4f8acf5a87e24300992fd4540c2a87eed556802b5e3af16b18800007fbfd358e93f18da3ed276c3afdbdba00b8f0b6008a03476a6a86bd6320ee6938b55680ad78ebc5ac62000007f697b2bd7bb2984c4e0dc14c79c987d37818484a62958b9c45a0e8b962f20650f559081905260056020527f1471eb6eb2c5e789fc3de43f8ce62938c7d1836ec861730447e2ada8fd81017b8190554262023280810191908210610171575f526005602052600560405f20015560405161149e90816101f48239f35b634e487b7160e01b5f52601160045260245ffd5b60405162461bcd60e51b815260206004820152602860248201527f456c2070726563696f2064656c207469636b6574206465626520736572206d616044820152673cb7b9103090181760c11b6064820152608490fd5b5f80fd5b634e487b7160e01b5f52604160045260245ffdfe6080806040526004361015610024575b50361561001a575f80fd5b610022611220565b005b5f3560e01c9081630a94f20b14610d73575080631fb0f050146106c4578063372500ab146105e257806360b69e93146105185780636f9fb98a146104fd578063bf3e394e1461038e578063c9b56c0814610290578063d0a2f2c4146101c8578063d0e30db0146101b5578063e8b5e51f146100ca5763ed8b6556146100a9575f61000f565b346100c6575f3660031901126100c6576020600c54604051908152f35b5f80fd5b5f3660031901126100c657341561017d57335f52600760205260405f205415610129575b335f52600760205260405f2061010534825461117e565b9055335f52600760205242600260405f2001556101243460095461117e565b600955005b600854600160401b811015610169578060016101489201600855611253565b81546001600160a01b0360039290921b91821b19163390911b1790556100ee565b634e487b7160e01b5f52604160045260245ffd5b60405162461bcd60e51b815260206004820152601060248201526f2232b132b99032b73b34b0b9102927a760811b6044820152606490fd5b5f3660031901126100c657610022611220565b346100c6575f3660031901126100c6576040518060206008549283815201809260085f527ff3f7a9fe364faab93b216da50a3214154f22a0a2b415b23a84c8169e8b636ee3905f5b818110610271575050508161022691038261118b565b604051918291602083019060208452518091526040830191905f5b81811061024f575050500390f35b82516001600160a01b0316845285945060209384019390920191600101610241565b82546001600160a01b0316845260209093019260019283019201610210565b346100c6575f3660031901126100c65760035460ff81161561034957600254421115610311576102c1600154611212565b908160015560ff1916600355805f52600560205260405f20556202328042018042116102fd576001545f526005602052600560405f2001555f80f35b634e487b7160e01b5f52601160045260245ffd5b60405162461bcd60e51b815260206004820152601060248201526f22b9b832b9309031b7b7b63237bbb71760811b6044820152606490fd5b60405162461bcd60e51b815260206004820152601960248201527f436f6d706c657461206c6120726f6e64612061637475616c2e000000000000006044820152606490fd5b346100c6575f3660031901126100c657335f52600760205260405f20805480156104c75760028201546301e1338081018091116102fd57421061048d57600a8102818104600a036102fd5760646104059104915f6103ec8483611205565b94556103fa83600b5461117e565b600b55600954611205565b6009555f80808085335af16104186111ad565b5015610457577f678bcb8d83ce37339a470462d6e0408ef3a12970b40d61bcee07ef84acaecdbf916060916040519133835260208301526040820152a1005b60405162461bcd60e51b815260206004820152600e60248201526d52657469726f2066616c6c69646f60901b6044820152606490fd5b60405162461bcd60e51b8152602060048201526012602482015271426c6f71756561646f203132206d6573657360701b6044820152606490fd5b60405162461bcd60e51b815260206004820152600e60248201526d4e61646120696e7665727469646f60901b6044820152606490fd5b346100c6575f3660031901126100c657602047604051908152f35b346100c65760403660031901126100c65760043560ff81168091036100c6575f546001600160a01b031633036105ad576003811015806105a2575b1561056b575f52600660205260243560405f20555f80f35b60405162461bcd60e51b815260206004820152600f60248201526e4e6976656c206e6f2076616c69646f60881b6044820152606490fd5b506006811115610553565b60405162461bcd60e51b815260206004820152600d60248201526c29b7b6379032b61037bbb732b960991b6044820152606490fd5b346100c6575f3660031901126100c657335f526007602052600360405f2001805490811561068d575f90555f80808084335af161061d6111ad565b5015610657576040805133815260208101929092527f999b30f9cebf480f8d5729a4de47050ab1c0ad132c0114afe35dbe87c9ef86cf91a1005b60405162461bcd60e51b815260206004820152600e60248201526d22b93937b91030b6103830b3b0b960911b6044820152606490fd5b60405162461bcd60e51b815260206004820152600f60248201526e53696e207265636f6d70656e73617360881b6044820152606490fd5b346100c6575f3660031901126100c6575f546001600160a01b03163303610d2e57600154805f526005602052600560405f200154421115610cf55760ff60035416610cb05760c080604051610719828261118b565b3690376040519161050061072d818561118b565b3684376040519261073e838561118b565b823685375f923360601b905b60ff851660068110156107d25760ff602860405160208101904282528660408201528360f81b8a60f81b1660548201526035815261078960558261118b565b519020061690610799828661135a565b51156107a7575b505061074a565b906107c46107ca93979260016107bd848961135a565b528961126b565b5261136b565b9386806107a0565b8682865f526005602052600160405f200182905f915f5b60068110610c8257505055600180545f90815260056020526040808220600301805460ff191684179055825482528082204260049091015591548152908120916002830191805b835481101561097e5761084381856111ec565b505f5f5b600660ff8216106108dc57505f9060ff166003810361089e57505060ff60015b60048301828216831982541617905516610885575b50600101610830565b600201805460ff1916600190811790915591508161087c565b600481036108b157505060ff6002610867565b600581036108c457505060ff6003610867565b6006146108d4575b60ff90610867565b5060046108cc565b945f989792989691969493945b60ff811660068110156109675760068810156109535760ff8061091660018e8c60051c010154938d61126b565b51169160f88a60031b161c16146109325760010160ff166108e9565b50949095600161094a60ff929a94999a96959661136b565b925b0116610847565b634e487b7160e01b5f52603260045260245ffd5b505094600160ff919993989997929795949561094c565b508061099a8692600787019060ff801983541691151516179055565b15610c72575b906001545f52600560205260405f2091600260039301905b60ff84169060068211610adb575f5f8454905b818110610aa65750508015610a99576109f090835f52600660205260405f2054611160565b935f5b8454811015610a83578360ff6004610a0b84896111ec565b5001541614610a1d575b6001016109f3565b5f80808089610a2c868b6111ec565b50546001600160a01b03165af1610a416111ad565b50610a155760405162461bcd60e51b81526020600482015260156024820152745472616e73666572656e6369612066616c6c69646160581b6044820152606490fd5b5094909350610a92915061136b565b92916109b8565b509293610a92915061136b565b8460ff6004610ab5848a6111ec565b5001541614610ac7575b6001016109cb565b91610ad3600191611212565b929050610abf565b83906001545f52600560205260405f205f60025f9201918254905b818110610c3d57505080151580610c32575b610b84575b505090600160ff196003541617600355607842018042116102fd576002556001549060405192835f905b60068210610b6b577f0d7f2ed0c180ddc67f69b23feaeeadedacc89fcc77abc26ab4e66e20b46df14560e0878787820152a1005b60208060019260ff865116815201930191019091610b37565b610b9090600c54611160565b915f5b8254811015610c2257600460ff81610bab84876111ec565b5001541614610bbd575b600101610b93565b5f80808087610bcc86896111ec565b50546001600160a01b03165af1610be16111ad565b50610bb55760405162461bcd60e51b81526020600482015260146024820152734a61636b706f74207061676f2066616c6c69646f60601b6044820152606490fd5b505f600c55915083905080610b0d565b50600c541515610b08565b600460ff81610c4c84886111ec565b5001541614610c5e575b600101610af6565b91610c6a600191611212565b929050610c56565b610c7d60015461137c565b6109a0565b90926020610ca76001928460ff885116919060ff809160031b9316831b921b19161790565b940191016107e9565b60405162461bcd60e51b815260206004820152601960248201527f596120736520636f6d706c65746f20656c20736f7274656f2e000000000000006044820152606490fd5b60405162461bcd60e51b81526020600482015260116024820152702937b732309030bab71030b1ba34bb309760791b6044820152606490fd5b60405162461bcd60e51b815260206004820152601b60248201527f536f6c6f20656c206f776e6572207075656465206365727261722e00000000006044820152606490fd5b60c03660031901126100c6573660c4116100c657600454340361111057610d9861128a565b6110cb576001545f526005602052600560405f20015442101561108d5760025442111561105557601e3402341590348104601e148217156102fd57600a340291348304600a1417156102fd575f808060648194610df9828804600c5461117e565b600c558254919004906001600160a01b03165af1610e156111ad565b50156110185760405160a0810181811067ffffffffffffffff82111761016957604052338152604051610e4960c08261118b565b6004815b60c4821061100057505060208201908152604082015f8152606083019042825260808401925f84526001545f526005602052600260405f20018054600160401b81101561016957610ea3916001820181556111ec565b959095610fed575185546001600160a01b0319166001600160a01b0391909116178555515f90815b60068110610fbf578660ff6004818989610efd8a8a6001890155511515600288019060ff801983541691151516179055565b51600386015551169201911660ff198254161790556001545f526005602052600660405f2001610f2e34825461117e565b9055600154805f526005602052600560405f20015460405191338352602083016004905f905b60068210610f9f577fc5da36347c6564f865f8d8185482ad43bba5fafed4c4a3bb9a90a1ed272dbc1261016087878760e08301525f61010083015261012082015242610140820152a1005b60208060019260ff610fb087611152565b16815201930191019091610f54565b90916020610fe46001928460ff875116919060ff809160031b9316831b921b19161790565b93019101610ecb565b634e487b7160e01b5f525f60045260245ffd5b6020809161100d84611152565b815201910190610e4d565b60405162461bcd60e51b81526020600482015260156024820152745061676f20616c206f776e65722066616c6c69646f60581b6044820152606490fd5b60405162461bcd60e51b815260206004820152601060248201526f21b7b7b63237bbb71030b1ba34bb379760811b6044820152606490fd5b60405162461bcd60e51b81526020600482015260166024820152752630903937b732309032b9ba309031b2b93930b2309760511b6044820152606490fd5b60405162461bcd60e51b815260206004820152601f60248201527f4c6f73206e756d65726f73206e6f20646562656e207265706574697273652e006044820152606490fd5b62461bcd60e51b815260206004820152601e60248201527f4465626573207061676172206578616374616d656e7465203120524f4e2e00006044820152606490fd5b359060ff821682036100c657565b811561116a570490565b634e487b7160e01b5f52601260045260245ffd5b919082018092116102fd57565b90601f8019910116810190811067ffffffffffffffff82111761016957604052565b3d156111e7573d9067ffffffffffffffff821161016957604051916111dc601f8201601f19166020018461118b565b82523d5f602084013e565b606090565b8054821015610953575f52600560205f20910201905f90565b919082039182116102fd57565b5f1981146102fd5760010190565b604080513381523460208201527f9936746a4565f9766fa768f88f56a7487c78780ac179562773d1c75c5269537e9190a1565b6008548110156109535760085f5260205f2001905f90565b9060068110156109535760051b0190565b3560ff811681036100c65790565b6004905f5b60ff8116926006841015611353576001840160ff81116113405760068510159460051b8201905b60ff8116600681101561132f578661131c576112d18361127c565b9060068110156113095760ff6112ec819260051b870161127c565b169116146112ff5760010160ff166112b6565b5060019450505050565b603285634e487b7160e01b5f525260245ffd5b603284634e487b7160e01b5f525260245ffd5b5050509250600160ff91011661128f565b601182634e487b7160e01b5f525260245ffd5b505f925050565b9060288110156109535760051b0190565b60ff1660ff81146102fd5760010190565b90815f52600560205260405f2060095415801561145a575b6114555760060154600a810290808204600a14901517156102fd576064900491908215905f5b600854811015611420576113cd81611253565b60018060a01b0391549060031b1c165f52600760205260405f209081549182870292878404148517156102fd57611418600361140e60019560095490611160565b920191825461117e565b9055016113ba565b5092604091507f08f2cec9b160029bc78ec5fd49a3ecace1d597a764de3984746ced4cd11306c29282519182526020820152a1565b509050565b5060ff60078201541661139456fea2646970667358221220136b180ec5f1b44f7872e03caff6853efb090ad217bb1c3a181c27c8c3e73ae964736f6c634300081d0033",
    "sourcePath": "d:/software/lotton-ronin/hardhat/contracts/LottoRon.sol",
    "compiler": {
        "name": "solc",
        "version": "0.8.29+commit.ab55807c"
    },
    "functionHashes": {
        "claimRewards()": "372500ab",
        "createTicket(uint8[6])": "0a94f20b",
        "deposit()": "d0e30db0",
        "getAllInvestors()": "d0a2f2c4",
        "getContractBalance()": "6f9fb98a",
        "getJackpotAmount()": "ed8b6556",
        "invest()": "e8b5e51f",
        "lotteryIsCompleted()": "1fb0f050",
        "lotteryStartNextRound()": "c9b56c08",
        "setPrizeForLevel(uint8,uint256)": "60b69e93",
        "withdrawInvestment()": "bf3e394e"
    },
    "gasEstimates": {
        "creation": {
            "codeDepositCost": "1055600",
            "executionCost": "infinite",
            "totalCost": "infinite"
        },
        "external": {
            "claimRewards()": "infinite",
            "createTicket(uint8[6])": "infinite",
            "deposit()": "1625",
            "getAllInvestors()": "infinite",
            "getContractBalance()": "246",
            "getJackpotAmount()": "2473",
            "invest()": "infinite",
            "lotteryIsCompleted()": "infinite",
            "lotteryStartNextRound()": "97362",
            "setPrizeForLevel(uint8,uint256)": "24614",
            "withdrawInvestment()": "infinite"
        },
        "internal": {
            "distributeInvestorRewards(uint256)": "infinite",
            "distributeJackpot(uint256)": "infinite",
            "distributePrizes(uint256)": "infinite",
            "hasDuplicates(uint8[6] calldata)": "infinite",
            "lotteryGenerateWinningNumbers()": "infinite",
            "verifyWinners(uint8[6] memory)": "infinite"
        }
    }
}